:020000020000FC
:0C0000000C9433000C9427040C94390479
:10005C000C946B040C94320018954FEF4DBF41E299
:10006C004EBF4FEF40BB41B9442741BB42B978E387
:10007C00C0D5CFD5E8D578E3BCD5CBD5DBD578E3E7
:10008C00B8D5C7D578E3B5D5C4D578E0B2D5C1D548
:10009C0071E0AFD5BED574E0ACD5BBD57CE0A9D5AD
:1000AC00B8D540EF40930A014FEF47B948B94FEF2D
:1000BC0043BB44274AB94FEF4BB944E04093690026
:1000CC004DB342604DBB42E0409369004DB341607B
:1000DC004DBB40E2409369004DB344604DBB40E1E1
:1000EC004DB9442740939A00442740939B0041E02C
:1000FC004093910041E2409390004427C0E0D2E04D
:10010C0070E07883C8E0D2E073E47883CAE0D2E090
:10011C007DE27883C9E0D2E070E07883CBE0D2E076
:10012C0077277883C3E0D2E077277883C4E0D2E0E6
:10013C0077277883C5E0D2E077277883C6E0D2E0D2
:10014C0077277883C7E0D2E077277883CEE0D2E0B8
:10015C00772778837FEC4DD55CD540910802742FBE
:10016C004FD557D57FE845D554D540910A02742F09
:10017C0047D54FD5C1E0D2E0772779937883CCE08F
:10018C00D2E077277993788340E044BD42E045BDC7
:10019C0041E040936E007894C8E0D2E078817334EB
:1001AC00D9F73FEE11271430B9F330930B014FEF11
:1001BC004A95F1F7409109014F704F30C1F05FEF54
:1001CC0050930B0130930B015FEF5A95F1F750915F
:1001DC0009015F705F3099F721E00027043039F096
:1001EC00542F522349F00395220F0C94F400330F33
:1001FC00339513950C94D900133041F0033051F022
:10020C00402F440F400F410F4F5C12C041E4400F90
:10021C000C941E01103031F0113031F043E21230E9
:10022C0029F01AC04AE204C040E302C043E200C015
:10023C0050910002503089F0513031F0523031F091
:10024C00533031F0543031F00C94C4020C949D03B3
:10025C000C94E4030C9454029FCF4A3241F0433285
:10026C0039F0413431F040534A3020F095CFAAC0D8
:10027C00B7C0DCC0405D74E0BCD4CBD4C3E0D2E0EA
:10028C00788173957883C3E0D2E07881753020F75C
:10029C00C3E0D2E07881713089F0C3E0D2E078819C
:1002AC007230F1F0C3E0D2E07881733029F0C3E012
:1002BC00D2E07881743009F02CC051C074E899D424
:1002CC00A8D4742F9DD4A5D44053C5E0D2E0742F8C
:1002DC00788370E18ED49DD47AE392D49AD45CCF97
:1002EC0073E887D496D450910502C4E0D2E0752F00
:1002FC007883505D752F84D48CD474E87AD489D4E7
:10030C00742F7ED486D44053C5E0D2E0742F78830A
:10031C0043CF71E86ED47DD450910402C7E0D2E093
:10032C00752F7883505D752F6BD473D473E861D4BB
:10033C0070D450910502C4E0D2E0752F7883505DE3
:10034C00752F5ED466D474E854D463D4742F58D407
:10035C0060D44053C5E0D2E0742F78831DCF70E891
:10036C0048D457D450910702C6E0D2E0752F788359
:10037C00505D752F45D44DD471E83BD44AD450917F
:10038C000402C7E0D2E0752F7883505D752F38D406
:10039C0040D473E82ED43DD450910502C4E0D2E091
:1003AC00752F7883505D752F2BD433D474E821D4FA
:1003BC0030D4742F25D42DD44053C5E0D2E0742F03
:1003CC007883EACEC3E0D2E07881703021F4C7E0C4
:1003DC00D2E071E07883C0E0D2E071E07883DCCECB
:1003EC00C4E0D2E077277883C3E0D2E07727788324
:1003FC00C5E0D2E077277883C6E0D2E07727788310
:10040C00C7E0D2E07727788371E0F3D302D47FE89A
:10041C00F0D3FFD37DE2F4D3FCD37FECEAD3F9D352
:10042C0040910802742FECD3F4D3B6CE70E8E1D32C
:10043C00F0D376E0DED3EDD373E5E2D3EAD375E601
:10044C00DFD3E7D374E7DCD3E4D370E2D9D3E1D3C1
:10045C0070E5D6D3DED37FE6D3D3DBD377E7D0D327
:10046C00D8D375E6CDD3D5D372E7CAD3D2D370EC3B
:10047C00C0D3CFD371E3C4D3CCD37FE2C1D3C9D320
:10048C0072E3BED3C6D37FE2BBD3C3D373E3B8D37B
:10049C00C0D3C0E0D2E074E078837ECE413339F033
:1004AC00423361F0433389F04332B1F075CE4FEFF4
:1004BC0048B9C9E0D2E070E078836ECE4FE048B91D
:1004CC00C9E0D2E071E0788367CE43E048B9C9E077
:1004DC00D2E072E0788360CE74E08BD39AD371E073
:1004EC0088D397D3409108027FEC83D392D3742F97
:1004FC0087D38FD372E87DD38CD37AE381D389D31E
:10050C00C0E0D2E070E07883C3E0D2E07881713053
:10051C0059F1C3E0D2E078817230E9F0C3E0D2E067
:10052C007881733079F0C3E0D2E07881743009F0CF
:10053C0033CE70E85ED36DD340910602405D742FCC
:10054C005FD367D371E855D364D340910702405D04
:10055C00742F56D35ED373E84CD35BD34091040213
:10056C00405D742F4DD355D374E843D352D340918F
:10057C000502405D742F44D34CD30ECECEE0D2E0B6
:10058C0071E078834A3271F0433249F0433441F0E0
:10059C00443439F0CEE0D2E077277883FDCD35C0F6
:1005AC0040C088C024D1C7E0D2E07881793031F0E6
:1005BC00C7E0D2E078817395788322C0C6E0D2E0A0
:1005CC007881793051F0C7E0D2E070E07883C6E0F2
:1005DC00D2E078817395788313C0C4E0D2E078813F
:1005EC00743034F4409104024A5F4093040208C012
:1005FC00C4E0D2E079E07883C5E0D2E079E078839A
:10060C00CEE0D2E077277883C7CD40E040939A00C4
:10061C00C0E0D2E072E07883CEE0D2E07727788336
:10062C00BBCDE5D0C4E0D2E07881733034F4409196
:10063C0004024D5F4093040238C0C7E0D2E07881D9
:10064C00793059F0C7E0D2E0788173957883409186
:10065C00040243504093040228C0C6E0D2E07881E3
:10066C00793079F0C6E0D2E0788173957883C7E071
:10067C00D2E07727788340910402435040930402E0
:10068C0014C0C4E0D2E07881773034F44091040295
:10069C004D5F4093040209C0C4E0D2E079E0788356
:1006AC00C5E0D2E079E0788300C0CEE0D2E07727D5
:1006BC00788372CDC4E0D2E07881733034F040910D
:1006CC0004024350409304022DC0C7E0D2E078816D
:1006DC00703059F0C7E0D2E078817A9578834091F8
:1006EC0004024D5F409304021DC0C6E0D2E0788145
:1006FC00703079F0C6E0D2E078817A957883C7E0E3
:10070C00D2E077277883409104024D5F4093040236
:10071C0009C0C4E0D2E077277883C5E0D2E0772720
:10072C00788300C0CEE0D2E07727788335CD4A328B
:10073C0019F0433231F030CDC0E0D2E071E0788373
:10074C002BCDC3E0D2E077277883C4E0D2E07727C3
:10075C007883C5E0D2E077277883C6E0D2E07727AC
:10076C007883C7E0D2E077277883CCE0D2E0772794
:10077C007993788371E03DD24CD27FE83AD249D25A
:10078C007DE23ED246D27FEC34D243D24091080275
:10079C00742F36D23ED2C0E0D2E070E07883CBE04A
:1007AC00D2E07881703029F0CBE0D2E077277883E3
:1007BC00F3CCCBE0D2E071E07883EECC433209F09D
:1007CC00EBCC71E016D225D27FE813D222D27DE297
:1007DC0017D21FD27FEC0DD21CD240910802742F7D
:1007EC000FD217D2C0E0D2E070E07883D5CCC4E051
:1007FC00D2E0788176300CF423C0C7E0D2E0788167
:10080C00793059F0C7E0D2E0788173957883709194
:10081C00040276507093040213C0C6E0D2E07881D3
:10082C00793071F0C6E0D2E0788173957883C7E0B7
:10083C00D2E077277883709104027650709304028B
:10084C000895662764BB70ECD4D1E3D1C8E0D2E044
:10085C0073E47883609108027FECCBD1DAD1762FE8
:10086C00CFD1D7D118956FEF64BB70ECC2D1D1D179
:10087C00C8E0D2E07FE47883609108027FECB9D1C4
:10088C00C8D1762FBDD1C5D1C0E0D2E0788171300E
:10089C00A1F0C0E0D2E07881733009F015C071E0AE
:1008AC00A8D1B7D17FE8A5D1B4D17DE2A9D1B1D17E
:1008BC00C0E0D2E070E0788307C0C0E0D2E072E024
:1008CC00788360E060939A001895C0E0D2E078815C
:1008DC00713031F4CEE0D2E07881713009F001C092
:1008EC0087C18091010290910202A8ECA0939A001A
:1008FC008030A0E09A0721F4A8ECA0939A001AC0CB
:10090C00C9E0D2E07881723031F0C9E0D2E0788170
:10091C00713049F00FC0813AA7E09A0758F0A0E077
:10092C00A0939A0007C08234AFE09A0718F0A0E0B9
:10093C00A0939A0001968438AEE19A0731F4C1E095
:10094C00D2E077277993788305C080930102909346
:10095C000202E2C0C5E0D2E07881703031F0C5E02F
:10096C00D2E078817A9578835EC0C5E0D2E079E0F8
:10097C007883C4E0D2E07881703031F0C4E0D2E00A
:10098C0078817A9578834FC0C4E0D2E075E07883A3
:10099C00C5E0D2E079E07883C7E0D2E078817030AE
:1009AC0031F0C7E0D2E078817A9578833CC0C4E01E
:1009BC00D2E075E07883C5E0D2E079E07883C7E0D7
:1009CC00D2E079E07883C6E0D2E07881703031F003
:1009DC00C6E0D2E078817A95788325C0C3E0D2E076
:1009EC0077277883C4E0D2E077277883C5E0D2E01C
:1009FC0077277883C6E0D2E077277883C7E0D2E008
:100A0C0077277883CCE0D2E0772779937883C9E095
:100A1C00D2E070E07883CAE0D2E07DE27883C0E077
:100A2C00D2E073E0788370E8E4D0F3D076E0E1D0E4
:100A3C00F0D0A0910602A05D7A2FE2D0EAD0A0916E
:100A4C000702A05D7A2FDCD0E4D0AAE37A2FD8D0AD
:100A5C00E0D0A0910402A05D7A2FD2D0DAD0A09180
:100A6C000502A05D7A2FCCD0D4D0C0E0D2E0788142
:100A7C00733009F051C070E8BCD0CBD076E0B9D05F
:100A8C00C8D074E4BDD0C5D07FE6BAD0C2D07EE663
:100A9C00B7D0BFD075E6B4D0BCD070E2B1D0B9D06D
:100AAC007FE8A7D0B6D07DE2ABD0B3D070ECA1D0AC
:100ABC00B0D072E5A5D0ADD075E6A2D0AAD07DE6B7
:100ACC009FD0A7D07FE69CD0A4D076E799D0A1D0B8
:100ADC0075E696D09ED070E293D09BD076E690D0FF
:100AEC0098D07FE68DD095D07FE68AD092D074E6F0
:100AFC0087D08FD0A0E0A0939A00CBE0D2E0788191
:100B0C00703029F0CBE0D2E07727788371C0CBE04E
:100B1C00D2E071E078836CC080910C0290910D0250
:100B2C0001968A34ACE49A0731F4CCE0D2E0772712
:100B3C007993788305C080930C0290930D0258C072
:100B4C00CAE0D2E078817D3279F0CAE0D2E07881D7
:100B5C007D3CC9F0CAE0D2E078817C3719F1CAE05B
:100B6C00D2E078817F3269F1CBE0D2E078817030CD
:100B7C0029F0CAE0D2E07DEC788332C0CAE0D2E042
:100B8C007FE278832DC0CBE0D2E07881703029F001
:100B9C00CAE0D2E07CE7788323C0CAE0D2E07DE2F1
:100BAC0078831EC0CBE0D2E07881703029F0CAE0A7
:100BBC00D2E07FE2788314C0CAE0D2E07DEC788387
:100BCC000FC0CBE0D2E07881703029F0CAE0D2E0DF
:100BDC007DE2788305C0CAE0D2E07CE7788300C070
:100BEC007FE807D016D0A0910A027A2F09D011D035
:100BFC00189571BB1FD0169A1DD016981BD008954E
:100C0C0071BB179A17D0169A15D0169813D017983F
:100C1C0008957F93772770BB71BB159A0BD0169AEA
:100C2C0009D07FB1169877FDF9CF15987FEF70BB7F
:100C3C007F9108958F939F939FE08CE90197F1F733
:100C4C009F918F910895F6DFF5DFF4DFF3DFF2DF8C
:020C5C000895F9
:00000001FF
